:020000040800F2
:10000000281C002479030008E5370008E1370008C0
:100010006D0E00909F050008013D000800000000E3
:10002000000000000000000000000000E53C0008A7
:10003000A305000800000000E7370008E73C0008BF
:10004000AF030008AF030008AF030008AF030008C8
:10005000AF030008AF030008AF030008AF030008B8
:10006000AF030008AF030008AF030008AF030008A8
:10007000AF030008AF030008AF030008AF03000898
:10008000AF030008AF030008AF030008AF03000888
:10009000AF030008AF030008AF030008AF03000878
:1000A000AF030008AF030008AF030008AF03000868
:1000B000AF030008AF0300080D0F0090AF03000866
:1000C000AF030008AF030008AF030008AF03000848
:1000D000AF030008F13C0008AF030008AF030008BD
:1000E000AF030008AF03000800000000AF030008E2
:1000F000AF030008AF030008AF030008AF03000818
:10010000AF030008AF030008AF030008AF03000807
:10011000AF030008AF030008AF030008AF030008F7
:10012000AF030008AF030008AF030008AF030008E7
:10013000AF030008AF030008AF030008AF030008D7
:1001400000000000000000000000000000000000AF
:10015000AF030008AF030008AF030008AF030008B7
:10016000AF030008AF030008AF030008AF030008A7
:10017000AF030008AF030008AF030008AF03000897
:10018000AF030008AF030008AF030008AF03000887
:10019000AF030008AF030008AF030008AF03000877
:1001A000AF030008AF030008AF030008AF03000867
:1001B000AF030008AF030008AF030008AF03000857
:1001C000AF030008AF030008AF030008AF03000847
:1001D000AF030008AF030008AF030008AF03000837
:1001E000AF030008AF030008AF030008AF03000827
:1001F000AF030008AF030008AF030008AF03000817
:10020000AF030008AF030008AF030008AF03000806
:10021000AF030008AF030008AF030008AF030008F6
:10022000AF030008AF030008AF03000800000000A0
:10023000AF030008AF03000800000000AF03000890
:10024000AF030008AF030008AF030008AF030008C6
:10025000AF030008AF030008AF030008AF030008B6
:10026000AF030008AF030008AF030008AF030008A6
:10027000AF030008AF030008AF0300080000000050
:10028000AF030008AF030008AF0300080000000040
:1002900000000000AF03000800F002F800F05CF876
:1002A0000AA090E8000C82448344AAF10107DA45D1
:1002B00001D100F051F8AFF2090EBAE80F0013F0C7
:1002C000010F18BFFB1A43F001031847F84A00005A
:1002D000184B00000A444FF0000C10F8013B13F0DB
:1002E000070408BF10F8014B1D1108BF10F8015B8F
:1002F000641E05D010F8016B641E01F8016BF9D182
:1003000013F0080F1EBF10F8014BAD1C0C1B09D1D8
:100310006D1E58BF01F801CBFAD505E014F8016B4A
:1003200001F8016B6D1EF9D59142D6D370470000DC
:100330000023002400250026103A28BF78C1FBD8EE
:10034000520728BF30C148BF0B6070471FB504F08B
:100350001FFD1FBD10B510BD00F0B8F81146FFF726
:10036000F5FF03F045FD00F0D6F803B4FFF7F2FF08
:1003700003BC03F0E3FC0000DFF84000016841F437
:1003800070010160BFF34F8FDFF83400016821F086
:1003900040410160BFF36F8F0A480047FEE7FEE768
:1003A000FEE7FEE7FEE7FEE7FEE7FEE7FEE7FEE725
:1003B00005480649044A064B7047000088ED00E0F6
:1003C00034EF00E09902000828140024281C0024BF
:1003D00028140024704753EA020C00F069802DE9CC
:1003E000F04B4FF00006002B1FBFB3FA83F503FA62
:1003F00005F424FA05F65E4012BF1643B2FA82F500
:1004000002FA05F4C5F120051EBF22FA05FC44EAF4
:100410000C04203556EA044C4FEA144418BF641CFF
:100420004FF000084FF00009904271EB030C39D3F4
:10043000002919BFB1FA81F701FA07F6B0FA80F77F
:1004400000FA07F6C7F120071EBF20FA07FC46EAAC
:100450000C062037B6FBF4FCA7EB0507103F07F0AE
:100460001F0BCBF120060CFA0BFB2CFA06F644BF4F
:10047000B3460026202FA4BF5E464FF0000B5BEA78
:10048000060C08BF4FF0010B19EB0B09ABFB027C0C
:1004900048EB0608C01B06FB02CC0BFB03CC71EB40
:1004A0000C01C1E70B46024641464846BDE8F08BC9
:1004B00013B54FF000004FF00001AFF30080BDE82E
:1004C0001C4070477047704770477047754600F092
:1004D0002BF8AE4605006946534620F007008546D6
:1004E00018B020B5FFF764FFBDE820404FF00006CC
:1004F0004FF000074FF000084FF0000B21F007010C
:10050000AC46ACE8C009ACE8C009ACE8C009ACE84E
:10051000C0098D46704710B50446AFF300802046F1
:10052000BDE81040FFF721BF00487047C413002406
:1005300040F60D6CC9F2000C604740F6011CC9F290
:10054000000C604745F22D7CC9F2000C604745F273
:10055000956CC9F2000C604744F6993CC9F2000C56
:10056000604742F2490CC9F2000C604745F2855CD5
:10057000C9F2000C604742F2C90CC9F2000C604796
:1005800044F6453CC9F2000C604740F23D0CC9F20C
:10059000000C604740F6955CC9F2000C604700BF54
:1005A000FEE770472DE9F041044600F05BFD804610
:1005B00014B90120BDE8F08194F83500022808D074
:1005C0008020606500BF002084F8340000BF012057
:1005D000F0E7FE492068884249D0FC49183120687C
:1005E000884244D0F9493031206888423FD0F749E9
:1005F0004831206888423AD0F44960312068884206
:1006000035D0F24978312068884230D0EF499031B6
:10061000206888422BD0ED49A8312068884226D036
:10062000EB492068884222D0E94918312068884285
:100630001DD0E74930312068884218D0E44948315C
:100640002068884213D0E2496031206888420ED089
:10065000DF4978312068884209D0DD49903120682F
:10066000884204D0DA49A8312068884201D10120AB
:1006700000E0002068B12068006820F01E002168BA
:1006800008602068406920F0800021684861256882
:1006900006E02068006820F00E00216808602568E8
:1006A000CA492068884270D0C849183120688842F9
:1006B0006BD0C64930312068884266D0C349483182
:1006C0002068884261D0C1496031206888425CD08E
:1006D000BE4978312068884257D0BC4990312068A3
:1006E000884252D0B949A831206888424DD0B849D3
:1006F0002068884249D0B64918312068884244D0E1
:10070000B3493031206888423FD0B1494831206830
:1007100088423AD0AE4960312068884235D0AC4931
:1007200078312068884230D0A949903120688842C9
:100730002BD0A749A8312068884226D0A549206837
:10074000884222D0A3491431206888421DD0A14993
:1007500028312068884218D09E493C312068884260
:1007600013D09C495031206888420ED09949643199
:100770002068884209D0974978312068884204D09F
:1007800094498C312068884201D1012000E000208A
:1007900028B1206E006820F48070216E08608B49BB
:1007A0002068884249D0894918312068884244D05D
:1007B00086493031206888423FD0844948312068DA
:1007C00088423AD0814960312068884235D07F49DB
:1007D00078312068884230D07C4990312068884246
:1007E0002BD07A49A8312068884226D078492068E1
:1007F000884222D076491831206888421DD0744939
:1008000030312068884218D07149483120688842C8
:1008100013D06F496031206888420ED06C4978311E
:100820002068884209D06A4990312068884204D003
:100830006749A8312068884206D12068006820F006
:1008400001002168086005E02068006820F00100D0
:100850002168086011E000F005FCA0EB0800052805
:100860000BD920206065032084F8350000BF0020EC
:1008700084F8340000BF01209CE6286800F00100E5
:100880000028E8D151492068884249D04F491831A1
:100890002068884244D04D493031206888423FD09A
:1008A0004A494831206888423AD048496031206836
:1008B000884235D0454978312068884230D0434954
:1008C0009031206888422BD04049A8312068884266
:1008D00026D03F492068884222D03D4918312068FF
:1008E00088421DD03A4930312068884218D03849B2
:1008F00048312068884213D03549603120688842E9
:100900000ED0334978312068884209D0304990317F
:100910002068884204D02E49A8312068884201D13D
:10092000012000E0002040B1A66D94F85C0000F0CA
:100930001F013F208840B06007E0A76D94F85C007D
:1009400000F01F010120884078602049206888421B
:1009500076D01E4918312068884271D01B49303149
:10096000206888426CD0194948312068884267D095
:10097000164960312068884262D014497831206875
:1009800088425DD0114990312068884258D00F4983
:10099000A8312068884253D00D49206888424FD042
:1009A0000B491831206888424AD009493031206803
:1009B000884245D0064948312068884240D00449E1
:1009C0006031206888423BD0014905E010000240B8
:1009D00010040240085402587831206888422FD011
:1009E0002549206888422BD0234918312068884245
:1009F00026D022492068884222D02049143120681C
:100A000088421DD01D4928312068884218D01B49D2
:100A10003C312068884213D0184950312068884200
:100A20000ED0164964312068884209D013497831C4
:100A30002068884204D011498C312068884201D155
:100A4000012000E0002068B1D4E919104860E06E90
:100A500040B1E06E006820F48070E16E0860D4E977
:100A60001C104860012084F8350000BF002084F885
:100A7000340000BF00BF9DE5A004024008540258A6
:100A800070B504460CB9012070BD94F835000228F9
:100A900003D0802060650120F6E7DC4920688842A9
:100AA00049D0DA4918312068884244D0D7493031DA
:100AB000206888423FD0D5494831206888423AD0E2
:100AC000D24960312068884235D0D04978312068D9
:100AD000884230D0CD499031206888422BD0CB4914
:100AE000A8312068884226D0C9492068884222D08F
:100AF000C7491831206888421DD0C5493031206867
:100B0000884218D0C24948312068884213D0C04971
:100B10006031206888420ED0BD4978312068884213
:100B200009D0BB4990312068884204D0B849A83127
:100B30002068884201D1012000E00020F0B30420A9
:100B400084F83500B149206888424BD0AF4918314C
:100B50002068884246D0AD4930312068884241D073
:100B6000AA494831206888423CD0A84960312068B1
:100B7000884237D0A54978312068884232D0A349CD
:100B80009031206888422DD0A049A8312068884241
:100B900028D09F492068884224D09D491831206878
:100BA00088421FD09A493031206888421AD098492B
:100BB00048312068884215D0954900E020E0603136
:100BC000206888420ED0924978312068884209D046
:100BD0008F4990312068884204D08D49A83120681F
:100BE000884206D12068006820F001002168086072
:100BF00009E12068006820F001002168086002E136
:100C00002068006820F00E00216808607F49206895
:100C1000884249D07D4918312068884244D07B49B8
:100C20003031206888423FD0784948312068884276
:100C30003AD0764960312068884235D0734978319E
:100C40002068884230D071499031206888422BD08A
:100C50006E49A8312068884226D06D4920688842B4
:100C600022D06B491831206888421DD06849303144
:100C70002068884218D0664948312068884213D0DD
:100C800063496031206888420ED06149783120681C
:100C9000884209D05E4990312068884204D05C497E
:100CA000A8312068884206D12068006820F0010041
:100CB0002168086005E02068006820F001002168D4
:100CC000086052492068884270D050491831206825
:100CD00088426BD04D4930312068884266D04B49FC
:100CE00048312068884261D0484960312068884294
:100CF0005CD0464978312068884257D043499031CA
:100D00002068884252D04149A831206888424DD09D
:100D10003F492068884249D03D49183120688842BF
:100D200044D03B493031206888423FD0384948316F
:100D3000206888423AD0364960312068884235D0F0
:100D4000334978312068884230D031499031206869
:100D500088422BD02E49A8312068884226D02D49C0
:100D60002068884222D02B491431206888421DD047
:100D7000284928312068884218D026493C3120680B
:100D8000884213D023495031206888420ED021492F
:100D900064312068884209D01E4978312068884231
:100DA00004D01C498C312068884201D1012000E028
:100DB0000020D8B1206E006820F48070216E086099
:100DC000A56D94F85C0000F01F0101208840686068
:100DD000D4E919104860E06E40B1E06E006820F47C
:100DE0008070E16E0860D4E91C104860012084F82E
:100DF000350000BF002084F8340000BF206D10B122
:100E00002046216D884700203EE600001000024089
:100E100010040240085402580348006840F00100E2
:100E2000014908607047000020040058F8B50246E8
:100E30000B4600216F4DD7E001278F401E6806EA60
:100E40000704002C72D01E7906F00306012E04D090
:100E50001E7906F00306022E13D190684F00032678
:100E6000BE40B0434F00DE68BE40304390605068E3
:100E700001268E40B0431E79C6F300168E403043E3
:100E800050601E7906F00306032E09D0D0684F008B
:100E90000326BE40B0434F009E68BE403043D06042
:100EA0001E7906F00306022E13D1CF0802F12006A8
:100EB00056F827004E07F70E0F26BE40B0434F07E7
:100EC000FF0E1E69BE403043CF0802F1200646F8EF
:100ED000270010684F000326BE40B0431E7906F07D
:100EE00003064F00BE40304310605E6806F4403693
:100EF000002E78D000BF404E366846F002063E4FC6
:100F00003E603E46366806F00206009600BF00BF0F
:100F10003A4E8F0856F827008E07370F0F26BE402F
:100F2000B043374EB24202D100262EE05BE0354E90
:100F3000B24201D1012628E0334EB24201D102264D
:100F400023E0324EB24201D103261EE0304EB242BF
:100F500001D1042619E02F4EB24201D1052614E03A
:100F60002D4EB24201D106260FE02C4EB24201D1E5
:100F700007260AE02A4EB24201D1082605E0294E92
:100F8000B24201D1092600E00A268F073F0FBE407A
:100F900030431A4E8F0846F827004FF0B0463068AD
:100FA000A0435E6806F4801606B120434FF0B046B9
:100FB00030607068A0435E6806F4001606B12043F6
:100FC0004FF0B04670606868A0435E6806F4003673
:100FD00006B1204368602868A0435E6806F4803646
:100FE00006B120432860491C1E68CE40002E7FF4C5
:100FF00023AFF8BD80000058F4440258080400589C
:10100000000002580004025800080258000C025860
:10101000001002580014025800180258001C025810
:101020000020025800240258024613690B400BB1FD
:10103000012000E00020704710B5426921EA020358
:1010400002EA010443EA0443836110BD0AB18161ED
:1010500001E00B048361704701480068000C704791
:101060000010005C01480068704700001400002474
:10107000034800680349097808440149086070473B
:10108000140000241C00002410B5032000F00EF909
:1010900001F084FD10490968C1F303210F4A515C36
:1010A00001F01F0120FA01F40B48006800F00F0066
:1010B0001146085C00F01F0024FA00F0084908609F
:1010C000084804600F2000F00FF808B1012010BD9F
:1010D00000F09AF80020FAE718440258B44D0008CE
:1010E000040000240000002470B504461148007874
:1010F00008B9012070BD0F4800784FF47A71B1FB38
:10110000F0F00D490968B1FBF0F5284602F0A0FAAD
:1011100008B10120EEE7102C07D200222146501E14
:1011200000F087F80548046001E00120E2E70020B4
:10113000E0E700001C000024000000241800002448
:101140004178154A11600178F9B1121D41681160AA
:10115000017B0907C27A41EA0261827A41EAC2410F
:10116000427B41EA8241827B41EA4241C27B41EAC1
:101170000241427A41EA0221027A41EA42010278BE
:101180001143054A0832116005E00021024A121D90
:101190001160121D1160704798ED00E000BF00BFA4
:1011A00000BFBFF35F8F00BF00BF00BF05480068EE
:1011B00020F4803003490860002002497031086043
:1011C0007047000024ED00E040F001010D4A11607D
:1011D0000C497039096841F480310A4A703A11604B
:1011E00000BF00BF00BFBFF34F8F00BF00BF00BFF5
:1011F00000BF00BF00BFBFF36F8F00BF00BF00BFC5
:101200007047000094ED00E0704701460846002852
:101210000DDB00BF00BF00F01F0301229A4043090D
:101220009B0003F1E023C3F8002100BF00BF00BF13
:1012300070472DE9F05F80460D46164602F062FDCC
:10124000074639462A46334601F00700C0F1070A2F
:10125000BAF1040F02D94FF0040A01E0C0F1070A05
:10126000D14600F1040ABAF1070F02D24FF0000A8A
:1012700001E0A0F1030AD4464FF0010A0AFA09FA84
:10128000AAF1010A0AEA020A0AFA0CFA4FF0010B63
:101290000BFA0CFBABF1010B0BEA030B4AEA0B0454
:1012A0002146404602F036FDBDE8F09F00BF00F049
:1012B0000702064B19684FF6FF031940044B0B4316
:1012C00043EA0221014B196000BF70470CED00E0BA
:1012D0000000FA050348006840F08070014908608A
:1012E000704700000C4802582DE9F84304460D46AB
:1012F0001746FFF7B7FE8046A86900B100BFE8694E
:1013000000B100BF286A00B100BF00BF94F84000E0
:10131000012802D10220BDE8F883012084F84000B2
:1013200000BF94F84100012828D100206064022009
:1013300084F841004346002220212046009702F015
:1013400047FB0646DEB900222946204602F04CFA49
:10135000686A78B94346012202212046009702F0CC
:1013600037FB06465EB902202168C860012084F878
:10137000410004E0012084F8410000E0022600BFA3
:10138000002084F8400000BF3046C4E7F8B50446AA
:10139000FFF768FE06460CB90120F8BD206A402818
:1013A00000D000BF94F8410038B9204600F046F85C
:1013B00041F28831204600F0B4F82068006820F43B
:1013C000F851A068401E41EA002021680860A06C26
:1013D0003346002220210090204602F0F9FA05460B
:1013E00035BB2179E06840EA0160E1690843216A80
:1013F0000843216809680F4A1140084321680860C2
:10140000208A616941EA0040A1690843216849686E
:10141000094A11400843216848602068006840F08C
:1014200001002168086000206064012084F8410008
:101430002846B2E72FFFFF00FEF8E0FF70472DE9D6
:10144000F84F04460E4617460025FFF70BFE804670
:101450002068D0F81890206800F1200A00BF94F8A6
:101460004000012802D10220BDE8F88F012084F855
:10147000400000BF94F8410001284AD10020606478
:10148000002E40D0222084F8410020680069401CD2
:10149000A06320680069401C60632663206840697F
:1014A00020F0406040F08060216848612068C0F80A
:1014B000189013E04346012206212046009702F0CF
:1014C00087FA054605B10CE09AF80000216B087018
:1014D000206B401C2063A06B401EA063A06B002803
:1014E000E8D100BF5DB943460122022120460097A2
:1014F00002F06EFA054615B902202168C860012085
:1015000084F8410006E0606C40F00800606401254A
:1015100000E0022500BF002084F8400000BF2846FC
:10152000A2E7816470472DE9F84304460E4617464A
:101530000025FFF797FD8046206800F1200900BFD5
:1015400094F84000012802D10220BDE8F883012070
:1015500084F8400000BF94F84100012845D10020E4
:101560006064002E3BD0122084F84100206800699E
:10157000401CE06220680069401CA062666220682E
:10158000406920F040602168486113E04346012231
:1015900004212046009702F01BFA054605B10CE035
:1015A000606A007889F80000606A401C6062E06A46
:1015B000401EE062E06A0028E8D100BF5DB9434602
:1015C000012202212046009702F002FA054615B9D1
:1015D00002202168C860012084F8410006E0606CA8
:1015E00040F008006064012500E0022500BF0020F3
:1015F00084F8400000BF2846A7E7000010B501F0BE
:1016000083FA05490968C1F30211044A515C01F0EB
:101610001F01C84010BD000020440258B44D00080E
:1016200070B50146844D2D6805F00303824D2D6889
:10163000C5F30530804D2D1D2D68C5F300147E4D7A
:1016400014352D68C5F3CC0515FB04F501EE105AD1
:10165000B8EE411AF0EE410A00286FD023B1012BF9
:101660004ED0022B6BD16BE0734D283D2D68C5F336
:1016700040153DB3704D283D2D68C5F3C1066F4D33
:1016800025FA06F201EE102AF8EE411A01EE100AD0
:10169000B8EE411A81EE812A9FED691AC0EE811AD7
:1016A000654D10352D68C5F3080501EE105AB8EEEA
:1016B000411A31EE811AF7EE001A31EE211A22EEAC
:1016C000010A1CE001EE100AB8EE411ADFED5D1AC6
:1016D00081EE812A9FED5A1AC0EE811A564D1035BF
:1016E0002D68C5F3080501EE105AB8EE411A31EE27
:1016F000811AF7EE001A31EE211A22EE010A5BE0A0
:1017000001EE100AB8EE411ADFED4F1A81EE812A80
:101710009FED4B1AC0EE811A474D10352D68C5F369
:10172000080501EE105AB8EE411A31EE811AF7EEB3
:10173000001A31EE211A22EE010A3DE077E01DE0A9
:1017400001EE100AB8EE411A9FED402AC2EE011ACE
:101750009FED3B1A80EE812A374D10352D68C5F379
:10176000080501EE105AB8EE411A32EE011AB7EE32
:10177000002A31EE021A21EE810A1DE001EE100A64
:10178000B8EE411ADFED301A81EE812A9FED2C1A56
:10179000C0EE811A284D10352D68C5F3080501EEFD
:1017A000105AB8EE411A31EE811AF7EE001A31EEF6
:1017B000211A22EE010A00BF00BF1F4D10352D680F
:1017C000C5F3462501EE105AB8EE411AF7EE001A9D
:1017D00031EE211AC0EE011ABCEEE11A81ED001AB9
:1017E000154D10352D68C5F3064501EE105AB8EEBB
:1017F000411AF7EE001A31EE211AC0EE011ABCEEC2
:10180000E11A81ED011A0C4D10352D68C5F30665FE
:1018100001EE105AB8EE411AF7EE001A31EE211A15
:10182000C0EE011ABCEEE11A81ED021A03E00025B8
:101830000D604D608D6070BD284402580090D0034B
:10184000000000460024744C0024744A0024F44A2A
:1018500070B50146844D2D6805F00303824D2D6857
:10186000C5F30550804D2D1D2D68C5F300247E4D18
:101870001C352D68C5F3CC0515FB04F501EE105A97
:10188000B8EE411AF0EE410A00286FD023B1012BC7
:101890004ED0022B6BD16BE0734D283D2D68C5F304
:1018A00040153DB3704D283D2D68C5F3C1066F4D01
:1018B00025FA06F201EE102AF8EE411A01EE100A9E
:1018C000B8EE411A81EE812A9FED691AC0EE811AA5
:1018D000654D18352D68C5F3080501EE105AB8EEB0
:1018E000411A31EE811AF7EE001A31EE211A22EE7A
:1018F000010A1CE001EE100AB8EE411ADFED5D1A94
:1019000081EE812A9FED5A1AC0EE811A564D183584
:101910002D68C5F3080501EE105AB8EE411A31EEF4
:10192000811AF7EE001A31EE211A22EE010A5BE06D
:1019300001EE100AB8EE411ADFED4F1A81EE812A4E
:101940009FED4B1AC0EE811A474D18352D68C5F32F
:10195000080501EE105AB8EE411A31EE811AF7EE81
:10196000001A31EE211A22EE010A3DE077E01DE077
:1019700001EE100AB8EE411A9FED402AC2EE011A9C
:101980009FED3B1A80EE812A374D18352D68C5F33F
:10199000080501EE105AB8EE411A32EE011AB7EE00
:1019A000002A31EE021A21EE810A1DE001EE100A32
:1019B000B8EE411ADFED301A81EE812A9FED2C1A24
:1019C000C0EE811A284D18352D68C5F3080501EEC3
:1019D000105AB8EE411A31EE811AF7EE001A31EEC4
:1019E000211A22EE010A00BF00BF1F4D18352D68D5
:1019F000C5F3462501EE105AB8EE411AF7EE001A6B
:101A000031EE211AC0EE011ABCEEE11A81ED001A86
:101A1000154D18352D68C5F3064501EE105AB8EE80
:101A2000411AF7EE001A31EE211AC0EE011ABCEE8F
:101A3000E11A81ED011A0C4D18352D68C5F30665C4
:101A400001EE105AB8EE411AF7EE001A31EE211AE3
:101A5000C0EE011ABCEEE11A81ED021A03E0002586
:101A60000D604D608D6070BD284402580090D00319
:101A7000000000460024744C0024744A0024F44AF8
:101A80002DE9F04104460025A8464FF00062D4E954
:101A9000001011400020134659404040014331D10D
:101AA000A06E48B1B0F5801F0DD0B0F5001F11D069
:101AB000B0F5401F16D114E0F948006840F400303A
:101AC000F749086010E0022104F1080001F0A6FFC8
:101AD000054609E0022104F1280002F051F805460C
:101AE00002E001E0012500BF00BF55B9EC482430F9
:101AF000006820F44010A16E0843E94924310860D1
:101B000000E0A8464FF48073D4E90010194000208B
:101B10005940404001432ED1A06D05281BD2DFE87B
:101B200000F0030A11181900DD48006840F4003085
:101B3000DB49086011E0002104F1080001F06EFFAC
:101B400005460AE0002104F1280002F019F80546D4
:101B500003E002E001E0012500BF00BF55B9D04815
:101B60002430006820F00700A16D0843CC492431DF
:101B7000086000E0A8464FF40073D4E90010194053
:101B8000002059404040014334D1E06D802818D0F6
:101B900003DC40B140281DD10CE0C02818D0B0F5BE
:101BA000807F17D115E0BE48006840F40030BC4982
:101BB000086011E0002104F1080001F02FFF054644
:101BC0000AE0002104F1280001F0DAFF054603E0F5
:101BD00002E001E0012500BF00BF55B9B048243044
:101BE000006820F4E070E16D0843AD4924310860DD
:101BF00000E0A8464FF48063D4E9001019400020AB
:101C000059404040014339D1D4F8A800B0F5800FC5
:101C10001AD004DC50B1B0F5001F1ED10DE0B0F5B4
:101C2000C00F18D0B0F5000F17D115E09C48006820
:101C300040F400309A49086011E0002104F10800E6
:101C400001F0ECFE05460AE0002104F1280001F055
:101C500097FF054603E002E001E0012500BF00BF59
:101C60005DB98F482C30006820F46000D4F8A810CB
:101C700008438B492C31086000E0A8464FF400620D
:101C8000D4E9001011400020134659404040014360
:101C900039D1D4F8AC00B0F1007F1AD004DC50B1D7
:101CA000B0F1807F1ED10DE0B0F1407F18D0B0F1CF
:101CB000806F17D115E07A48006840F40030784909
:101CC000086011E0002104F1080001F0A7FE0546BC
:101CD0000AE0002104F1280001F052FF054603E06C
:101CE00002E001E0012500BF00BF5DB96C482C3067
:101CF000006820F0E060D4F8AC10084368492C314B
:101D0000086000E0A8464FF00073D4E900011840D5
:101D1000002158404940084328D1E06CA8B1102860
:101D200004D0202809D0302810D10DE05C4800688C
:101D300040F400305A4908600AE0022104F108002A
:101D400001F06CFE054603E002E001E0012500BF62
:101D500000BF55B952482030006820F03000E16CD7
:101D600008434F492031086000E0A8464FF48053F3
:101D7000D4E900101940002059404040014337D1B8
:101D8000206EB0F5005F1AD004DC50B1B0F5805F72
:101D90001ED10DE0B0F5405F18D0B0F5804F17D1DF
:101DA00015E03F48006840F400303D49086011E00C
:101DB000002104F1080001F031FE05460AE000218F
:101DC00004F1280001F0DCFE054603E002E001E03A
:101DD000012500BF00BF55B931482430006820F408
:101DE000E040216E08432E492431086000E0A846F7
:101DF0004FF40053D4E900101940002059404040EE
:101E0000014335D1606EB0F5403F1ED007DC68B1AC
:101E1000B0F5803F0BD0B0F5003F19D10EE0B0F522
:101E2000802F13D0B0F5A02F12D110E012E00121C5
:101E300004F1080001F0F2FD05460BE0012104F178
:101E4000280001F09DFE054604E003E002E001E009
:101E5000012500BF00BF55B911482430006820F4A7
:101E6000E020616E08430E492431086000E0A84676
:101E70004FF48043D4E90001184000215840494004
:101E8000084337D1D4F8B000B0F1405F20D009DC6E
:101E900078B1B0F1805F0DD0B0F1005F1BD110E0E0
:101EA0002C440258B0F1804F13D0B0F1A04F12D1A2
:101EB00010E012E0012104F1080001F0AFFD054639
:101EC0000BE0012104F1280001F05AFE054604E070
:101ED00003E002E001E0012500BF00BF4DB9FE486C
:101EE000006820F0E040D4F8B0100843FA490860D8
:101EF00000E0A8464FF40042D4E900101140002051
:101F0000134659404040014329D1206FB0B1B0F190
:101F1000805F03D0B0F1005F11D108E0EE482C38AB
:101F2000006840F40030EC492C39086009E00121D8
:101F300004F1080001F072FD054602E001E0012510
:101F400000BF00BF55B9E4480838006820F0405091
:101F5000216F0843E0490839086000E0A8464FF0C7
:101F60008072D4E9001011400020134659404040CF
:101F700001432AD1A06CB8B1012804D002280BD0AB
:101F8000032812D10FE0D4482C38006840F4003008
:101F9000D1492C3908600AE0022104F1080001F05F
:101FA0003DFD054603E002E001E0012500BF00BF62
:101FB00055B9C9480C38006820F00300A16C0843EB
:101FC000C5490C39086000E0A8464FF48002D4E906
:101FD00000011040002113465840494008437DD17C
:101FE000BE48006840F48070BC490860FFF73AF8CA
:101FF000064606E0FFF736F8801B642801D9032562
:1020000005E0B648006800F480700028F2D000BFF8
:1020100085BBB1481830006800F44070B4F8B410C3
:1020200001F44071884213D0AB481830006820F4A6
:102030004077A9481830006840F48030A64918312C
:1020400008600846006820F4803008600846076091
:10205000D4F8B400B0F5807F15D1FFF703F8064639
:1020600009E0FEF7FFFF801B41F28831884202D968
:10207000032507E038E0984818300068C0F34000B6
:102080000028EED000BF55BB00BFB4F8B40000F488
:102090004070B0F5407F0ED18F484838006820F47A
:1020A0007C518F4AD4F8B400104041EA10108A499C
:1020B0004839086007E088484838006820F47C50B8
:1020C000854948390860844818300068B4F8B4106D
:1020D000C1F30B0108438049183101E005E001E03C
:1020E000086002E0A84600E0A8460122D4E9000109
:1020F00010400021134658404940084330D1E06F5A
:1021000018281AD005DC48B1082808D0102817D1A3
:102110000CE0202812D0282812D110E012E0012172
:1021200004F1080001F07AFC05460BE0012104F1FE
:10213000280001F025FD054604E003E002E001E08F
:10214000012500BF00BF55B96348001F006820F09B
:102150003800E16F08436049091F086000E0A846A5
:102160000222D4E9000110400021134658404940A2
:10217000084329D1A06F062816D2DFE800F0030437
:102180000B12131412E0012104F1080001F046FCC7
:1021900005460BE0012104F1280001F0F1FC0546A1
:1021A00004E003E002E001E0012500BF00BF55B9F3
:1021B0004948001F006820F00700A16F0843464906
:1021C000091F086000E0A8460423D4E90010194064
:1021D000002059404040014329D1D4F894000628FA
:1021E00016D2DFE800F003040B12131412E00121F1
:1021F00004F1080001F012FC05460BE0012104F196
:10220000280001F0BDFC054604E003E002E001E027
:10221000012500BF00BF4DB92F48006820F007001E
:10222000D4F8941008432C49086000E0A846202305
:10223000D4E900011840002158404940084337D1F3
:10224000D4F89000B0F1405F1ED007DC68B1B0F167
:10225000805F0BD0B0F1005F19D10EE0B0F1804F7C
:1022600013D0B0F1A04F12D110E012E0002104F120
:10227000080001F0D3FB05460BE0022104F1280021
:1022800001F07EFC054604E003E002E001E00125E8
:1022900000BF00BF5DB91048001F006820F0E0409B
:1022A000D4F8901008430C49091F086000E0A846C4
:1022B0004023D4E900101940002059404040014318
:1022C0003CD1D4F89C00B0F5406F25D00EDCA0B115
:1022D000B0F5806F12D005E058440258004802580B
:1022E000FFFCFF0FB0F5006F19D10EE0B0F5805F75
:1022F00013D0B0F5A05F12D110E012E0002104F17C
:10230000080001F08BFB05460BE0022104F12800D8
:1023100001F036FC054604E003E002E001E001259F
:1023200000BF00BF4DB9FE48006820F4E050D4F86B
:102330009C100843FA49086000E0A8468023D4E9CD
:1023400000101940002059404040014335D1D4F8D5
:10235000A000B0F5C04F1ED007DC68B1B0F5005F3B
:102360000BD0B0F5804F19D10EE0B0F5004F13D06F
:10237000B0F5204F12D110E012E0002104F1080066
:1023800001F04CFB05460BE0022104F1280001F0AE
:10239000F7FB054604E003E002E001E0012500BF91
:1023A00000BF4DB9DE48006820F46040D4F8A010AA
:1023B0000843DB49086000E0A8460823D4E9001080
:1023C0001940002059404040014317D1D4F88400FF
:1023D000B0F5805F07D1022104F1280001F0D0FBA5
:1023E00008B14FF00108CE48001F006820F44050AB
:1023F000D4F884100843CA49091F08601023D4E99F
:1024000000101940002059404040014315D1D4F834
:102410009800B0F5807F07D1022104F1280001F077
:10242000AFFB08B14FF00108BD48006820F44070D0
:10243000D4F898100843BA4908604FF40022D4E950
:10244000000110400021134658404940084327D15D
:10245000D4F8A40030B1B0F5803F0AD0B0F5003F09
:102460000FD10DE0002104F1080001F0D7FA054674
:1024700009E0022104F1280001F082FB054602E098
:1024800001E0012500BF00BF4DB9A548006820F458
:102490004030D4F8A4100843A149086000E0A846E1
:1024A0004FF48023D4E900011840002158404940EE
:1024B00008432DD1D4F88800B0F5801F06D0B0F5C0
:1024C000001F0CD0B0F5401F11D10FE094482C38FC
:1024D000006840F4003092492C39086009E001217D
:1024E00004F1280001F04CFB054602E001E0012563
:1024F00000BF00BF5DB98A48001F006820F440108B
:10250000D4F8881008438649091F086000E0A846EF
:102510004FF48032D4E900011040002113465840A6
:102520004940084325D1206D18B1B0F5803F10D146
:1025300008E07B482C38006840F4003078492C399A
:10254000086008E0022104F1080001F067FA05467E
:1025500001E0012500BF00BF55B971480C38006883
:1025600020F48030216D08436D490C39086000E08B
:10257000A8464FF00052D4E9001011400020134645
:1025800059404040014307D1022104F1280001F0E5
:10259000F7FA08B14FF001084FF40033D4E9000115
:1025A0001840002158404940084329D1D4F8800000
:1025B000A0B1B0F5807F06D0B0F5007F0CD0B0F5AB
:1025C000407F0CD109E056482C38006840F40030B8
:1025D00053492C39086004E003E002E001E00125E2
:1025E00000BF00BF5DB94E48001F006820F4407076
:1025F000D4F8801008434A49091F086000E0A84643
:102600004FF48012D4E900101140002013465940C5
:102610004040014309D142480838006820F000409A
:10262000616F08433E49083908604FF08052D4E991
:1026300000101140002013465940404001430AD188
:1026400037484838006820F48040D4F8B810084370
:102650003349483908604FF40012D4E900101140A2
:102660000020134659404040014309D12C48083806
:10267000006820F08070E16E08432949083908603D
:102680004FF08042D4E90010114000201346594019
:102690004040014311D100BF21484838006820F470
:1026A00000401F494839086008460068D4F8BC104B
:1026B00008431B494839086000BF4FF00042D4E985
:1026C000001011400020134659404040014309D1F9
:1026D00013480C38006820F04050616D08431049E1
:1026E0000C3908604FF40002D4E9001011400020BA
:1026F00013465940404001430AD10948001F006871
:1027000020F44000D4F88C1008430549091F0860E4
:10271000012300216068184001224940504001E037
:1027200058440258014306D104F1080001F076F93B
:10273000054605B1A84602220021606810404940C4
:102740005040014307D1012104F1080001F066F96E
:10275000054605B1A84604230020616819400422FB
:1027600040405140084307D1022104F1080001F024
:1027700055F9054605B1A8460823002160681840B0
:10278000082249405040014306D104F1280001F0DD
:10279000F7F9054605B1A8461022002160681040EF
:1027A00049405040014307D1012104F1280001F0C4
:1027B000E7F9054605B1A8462022002061681140CE
:1027C00040405140084307D1022104F1280001F0A4
:1027D000D7F9054605B1A846B8F1000F02D100208F
:1027E000BDE8F0810120FBE72DE9F04104460D46EC
:1027F00014B90120BDE8F081BD48006800F00F0069
:10280000A8420ED2BA48006820F00F002843B84909
:1028100008600846006800F00F00A84201D00120BF
:10282000E8E7207800F0040004280ED1B1492069BF
:10283000096801F07001884207D9AE48006820F0AD
:10284000700021690843AB490860207800F0080057
:10285000082811D1A749091D6069096801F07001B4
:10286000884209D9A348001D006820F07000616902
:102870000843A049091D0860207800F010001028C6
:1028800011D19C49091DA069096801F4E0618842E1
:1028900009D99848001D006820F4E060A169084348
:1028A0009449091D0860207800F02000202811D1EB
:1028B00090490831E069096801F07001884209D93E
:1028C0008C480830006820F07000E16908438949AD
:1028D00008310860207800F0020002280ED18549F6
:1028E000E068096801F00F01884207D98148006853
:1028F00020F00F00E16808437E490860207800F06E
:102900000100002850D07B48006820F47060A16866
:102910000843784908606068022807D1754818386C
:102920000068C0F34040F8B9012063E760680328FD
:1029300007D1704818380068C0F34060A0B9012082
:1029400058E76068012807D16A4818380068C0F362
:10295000002048B901204DE7664818380068C0F3E8
:10296000800008B9012045E762480838006820F077
:102970000700616808435F4908390860FEF772FB89
:10298000064608E0FEF76EFB801B41F28831884264
:1029900001D903202EE757480838006800F03800B6
:1029A0006168B0EBC10FEDD1207800F00200022881
:1029B0000ED15049E068096801F00F01884207D242
:1029C0004C48006820F00F00E1680843494908605E
:1029D0004748006800F00F00A8420ED9444800683C
:1029E00020F00F002843424908600846006800F0C4
:1029F0000F00A84201D00120FCE6207800F004007E
:102A000004280ED13B492069096801F07001884211
:102A100007D23848006820F0700021690843354922
:102A20000860207800F00800082811D13149091DFC
:102A30006069096801F07001884209D22D48001DC3
:102A4000006820F07000616908432A49091D086088
:102A5000207800F01000102811D12649091DA06926
:102A6000096801F4E061884209D22248001D00682B
:102A700020F4E060A16908431E49091D0860207820
:102A800000F02000202811D11A490831E0690968B6
:102A900001F07001884209D216480830006820F021
:102AA0007000E169084313490831086000F076F8C6
:102AB00010490968C1F303210F4A515C01F01F015D
:102AC00020FA01F70B48006800F00F001146085C7F
:102AD00000F01F0027FA00F0084908600848076066
:102AE00008480068FEF700FB8046404682E600008A
:102AF0000020005218440258B44D0008040000247D
:102B0000000000241800002410B500F047F80D491B
:102B10000968C1F303210C4A515C01F01F0120FA3E
:102B200001F40848006800F00F001146085C00F04E
:102B30001F0024FA00F005490860054804600846B3
:102B4000006810BD18440258B44D00080400002469
:102B50000000002400B5FFF7D7FF05490968C1F35D
:102B60000211044A515C01F01F01C84000BD000081
:102B70001C440258B44D000800B5FFF7C5FF0549D5
:102B80000968C1F30221044A515C01F01F01C840E9
:102B900000BD00001C440258B44D0008F0B5824E40
:102BA000366806F0380636B1082E15D0102E15D02E
:102BB000182E7DD114E07C4E103E3668C6F34016C8
:102BC00046B1794E103E3668C6F3C107774E26FAF5
:102BD00007F000E07548E5E07548E3E07548E1E09E
:102BE000714E1836366806F003046F4E1836366894
:102BF000C6F305116C4E1C36366806F001056A4EA8
:102C000024363668C6F3CC0616FB05F601EE106ACC
:102C1000B8EE410A002971D024B1012C50D0022C09
:102C20006DD16DE0604E103E3668C6F340163EB37F
:102C30005D4E103E3668C6F3C1075C4E26FA07F3B8
:102C400001EE103AF8EE411A01EE101AB8EE411AF0
:102C500081EE812A9FED581AC0EE011A524E20369D
:102C60003668C6F3080601EE106AB8EE411A31EE76
:102C7000811AF7EE001A31EE211A62EE010A1EE007
:102C800001EE101AB8EE411ADFED4C1A81EE812ADE
:102C90009FED491AC0EE011A434E20363668C6F33E
:102CA000080601EE106AB8EE411A31EE811A00E012
:102CB00076E0F7EE001A31EE211A62EE010A5BE0CF
:102CC00001EE101AB8EE411A9FED3D2AC2EE011A2C
:102CD0009FED391A80EE012A334E20363668C6F34E
:102CE000080601EE106AB8EE411A32EE011AB7EE8C
:102CF000002A31EE021A61EE810A3DE04EE01DE04D
:102D000001EE101AB8EE411ADFED2E1A81EE812A7B
:102D10009FED291AC0EE011A234E20363668C6F3FD
:102D2000080601EE106AB8EE411A31EE811AF7EE8C
:102D3000001A31EE211A62EE010A1DE001EE101AAE
:102D4000B8EE411A9FED1E2AC2EE011A9FED1A1A23
:102D500080EE012A144E20363668C6F3080601EECE
:102D6000106AB8EE411A32EE011AB7EE002A31EEBF
:102D7000021A61EE810A00BF00BF0B4E2036366892
:102D8000C6F34626721C01EE102AB8EE411AC0EEB8
:102D9000811ABCEEE11A11EE100A00E0002001E0F9
:102DA000034800BF00BFF0BD104402580090D0039C
:102DB00000093D0000127A00000000460024744C17
:102DC0000024744A0024F44A2DE9F047044614B95B
:102DD0000120BDE8F087207800F00100002872D0C3
:102DE000FC48006800F03808FA481830D0F8009025
:102DF000B8F1100F06D0B8F1180F0FD109F0030089
:102E000002280BD1F34810380068C0F34040002876
:102E10006ED0606800286BD10120DAE700BF6068DF
:102E2000B0F5803F08D1EB481038006840F480309E
:102E3000E849103908602EE0606868B9E548103844
:102E4000006820F48030E3491039086008460068C3
:102E500020F4802008601EE06068B0F5A02F0DD13E
:102E6000DC481038006840F48020DA4910390860E6
:102E70000846006840F4803008600CE0D5481038FF
:102E8000006820F48030D349103908600846006893
:102E900020F48020086000BF6068A8B1FEF7E2F867
:102EA000054608E0FEF7DEF8401B41F28831884213
:102EB00001D903208DE7C74810380068C0F34040AF
:102EC0000028EFD014E014E0FEF7CCF8054608E047
:102ED000FEF7C8F8401B41F28831884201D903202F
:102EE00077E7BC4810380068C0F340400028EFD1B5
:102EF00000BF207800F00200022874D1B5480068B5
:102F000000F03808B3481830D0F80090B8F1000F3E
:102F100005D0B8F1180F56D109F00300D0BBAD4869
:102F200010380068C0F3800018B1E06808B90120CB
:102F30004FE7A8481038006820F01900E1680843FE
:102F4000A44910390860FEF78DF8054606E0FEF743
:102F500089F8401B022801D903203AE79D48103820
:102F60000068C0F380000028F1D000BFFEF774F8BD
:102F700041F2030188421AD8206940280BD19548B4
:102F80000C38006820F47C3040F4003091490C3952
:102F9000086017E017E08F480C38006820F47C3098
:102FA000216940EA01308B490C3908600AE0894800
:102FB0000C38006820F0FE40217C40EA0160854921
:102FC0000C39086066E0E06888B382481038006811
:102FD00020F01900E16808437E4910390860FEF7C7
:102FE00041F8054607E056E0FEF73CF8401B022892
:102FF00001D90320EDE6774810380068C0F380005F
:103000000028F1D000BFFEF727F841F20301884203
:103010001AD8206940280BD16E480C38006820F47B
:103020007C3040F400306B490C39086017E017E041
:1030300068480C38006820F47C30216940EA01308F
:1030400064490C3908600AE062480C38006820F0D6
:10305000FE40217C40EA01605E490C39086019E0BD
:103060005C481038006820F001005A4910390860A7
:10307000FDF7F8FF054606E0FDF7F4FF401B0228C8
:1030800001D90320A5E6534810380068C0F380003A
:103090000028F1D100BF207800F0100010287CD16A
:1030A0004C48006800F038084A481830D0F80090C2
:1030B000B8F1080F06D0B8F1180F3DD109F00300A0
:1030C000012839D1434810380068C0F3002020B1EE
:1030D000E069802801D001207BE600BFFDF7BCFF3E
:1030E00041F2030188421AD8206A20280AD13948BF
:1030F0000C38006820F0F84040F0804035490C3929
:10310000086018E033480C38006820F0F84094F864
:10311000201040EA81602F490C3908600BE02D48EF
:10312000001F006820F07C5094F8201040EA0160F5
:103130002849091F086066E0E06978B3254810381F
:10314000006840F08000234910390860FDF78AFFCD
:10315000054606E0FDF786FF401B022801D9032043
:1031600037E61C4810380068C0F300200028F1D072
:1031700000BFFDF771FF41F2030188421CD8206AAD
:1031800020280CD113480C38006820F0F84040F09B
:10319000804010490C3908601AE035E01CE00D4809
:1031A0000C38006820F0F84094F8201040EA816064
:1031B00008490C3908600BE00648001F006820F041
:1031C0007C5094F8201040EA01600249091F086011
:1031D00019E0000010440258FA48006820F080000E
:1031E000F8490860FDF73EFF054606E0FDF73AFFA7
:1031F000401B022801D90320EBE5F2480068C0F328
:1032000000200028F2D100BF207800F00800082834
:1032100036D16069D0B1EB487430006840F00100ED
:10322000E84974310860FDF71DFF054606E0FDF72B
:1032300019FF401B022801D90320CAE5E148743078
:103240000068C0F340000028F1D019E0DD48743078
:10325000006820F00100DB4974310860FDF702FFCF
:10326000054606E0FDF7FEFE401B022801D90320BB
:10327000AFE5D44874300068C0F340000028F1D1B5
:10328000207800F02000202830D1A069B8B1CD48C6
:10329000006840F48050CB490860FDF7E3FE054626
:1032A00006E0FDF7DFFE401B022801D9032090E570
:1032B000C4480068C0F340300028F2D016E0C1488E
:1032C000006820F48050BF490860FDF7CBFE05463A
:1032D00006E0FDF7C7FE401B022801D9032078E570
:1032E000B8480068C0F340300028F2D1207800F0E0
:1032F000040004287DD1B448006840F48070B249CD
:103300000860FDF7AFFE054606E0FDF7ABFE401B8B
:10331000642801D903205CE5AB48006800F48070A4
:103320000028F2D000BFA068012808D1A54870305D
:10333000006840F00100A349703108602DE0A068EA
:1033400068B9A0487030006820F001009D497031D4
:1033500008600846006820F0040008601DE0A068CE
:1033600005280DD197487030006840F00400954959
:10337000703108600846006840F0010008600CE009
:1033800090487030006820F001008E49703108606C
:103390000846006820F00400086000BFA068A0B1E3
:1033A000FDF760FE054608E0FDF75CFE401B41F2BC
:1033B0008831884201D903200BE5824870300068CB
:1033C000C0F340000028EFD013E0FDF74BFE0546A8
:1033D00008E0FDF747FE401B41F28831884201D9E1
:1033E0000320F6E4774870300068C0F340000028FE
:1033F000EFD1606A00287DD072481030006800F07C
:103400003800182877D0606A022875D16D480068A6
:1034100020F080706B490860FDF724FE054606E049
:10342000FDF720FE401B022801D90320D1E46548A6
:103430000068C0F340600028F2D100BFD4E90A1050
:1034400041EA00105F492831096840F2F3329143A4
:1034500008435C4928310860208E401EC0F30800F4
:10346000616B491E4FF47E4202EA41210843218FDD
:10347000491ED20102EA014108433C21095D491E6F
:10348000120202EA016108434E493031086000BF70
:10349000081F006820F00100091F08604948343007
:1034A00000684FF6F8718843A16C40EAC1004549B5
:1034B0003431086043482C30006820F00C00216C47
:1034C000084340492C3108600846006820F002009B
:1034D000616C08433B492C3108600846006840F4A1
:1034E000803008600846006840F4003008600846F4
:1034F000006802E093E038E01FE040F480200860BC
:103500000846006840F0010008602E48006840F05E
:1035100080702C490860FDF7A5FD054606E0FDF723
:10352000A1FD401B022801D9032052E42548006870
:10353000C0F340600028F2D071E02248006820F01B
:10354000807020490860FDF78DFD054606E0FDF717
:1035500089FD401B022801D903203AE4194800687C
:10356000C0F340600028F2D159E0164828300768BF
:10357000144830300668606A012821D007F0030142
:10358000A06A81421CD1C7F30511E06A884217D1B5
:10359000C6F30801206B401E814211D1606B401EB2
:1035A000C6F3462188420BD1A06B401EC6F30641EC
:1035B000884205D1E06B401EC6F30661884205D003
:1035C000012006E4004402580048025815480068EB
:1035D000C0F3CC07A06CB84221D01248083800686C
:1035E00020F001000F4908390860FDF73BFD054652
:1035F00000BFFDF737FD401BFBD00A4800684FF6BF
:10360000F8718843A16C40EAC1000649086005488A
:103610000838006840F001000249083908600020BD
:1036200048E4000034440258042808D14FF0E02157
:10363000096941F004014FF0E022116107E04FF009
:10364000E021096921F004014FF0E0221161704787
:1036500070B504462546681EB0F1807F01D3012075
:103660000FE0681E4FF0E02148610F214FF0FF305E
:1036700000F050FB00204FF0E02188610720086136
:10368000002070BD10B586B004462B4920688842E2
:1036900050D100BF00BF2948006840F01000274902
:1036A00008600846006800F01000009000BF00BFEE
:1036B00000BF00BF00BF21481038006840F0010083
:1036C0001E49103908600846006800F001000090AB
:1036D00000BF00BF00BF00BF00BF0846006840F049
:1036E000010008600846006800F00100009000BF7B
:1036F00000BF00BF4FF40070019002200290012033
:103700000390022004900720059001A90C48FDF7C2
:103710008DFB4FF4806001900720059001A90848B7
:10372000FDF784FB2520FDF770FD032211462520BF
:10373000FDF77FFD06B010BD00100140F0440258B7
:103740000000025810B504462049206888423BD149
:103750001F48008800F4004088BB1D48008800F422
:10376000804070B11B4800780A2803D00020184917
:10377000088024E01648008840F40040144908807E
:103780001DE0144800780D2806D11148008840F447
:1037900080400F49088012E00E4800780C490988E3
:1037A000C1F30D010C4A505409480088401C0849D7
:1037B000088008460088C72801DD00200880012213
:1037C00004490648FCF7B4FE10BD0000001001409B
:1037D0001000002412000024740100243C02002484
:1037E00000BFFEE77047704710B54B6A33B1B2F1C6
:1037F000406F03D08B6A5B1E046823618B69002BCA
:1038000076D00B6AE3B38B680468E361CB69FBB1E4
:10381000D1E90B3423434C6B23434C6A23438C8AFA
:1038200043EA84430C6923430C6A2343CC68234353
:10383000CC6923438C6923430C68234313430468F6
:103840006361B2F1406F02D04B680468A361BEE0CF
:10385000D1E90B3423434C6B23434C6A23438C8ABA
:1038600043EA84430C6923430C6A2343CC69234312
:103870008C6923430C682343134304686361A6E007
:10388000FFE7CB69EBB1D1E90B3423434C6B234306
:103890004C6A23438C8A43EA84430C6A2343CC68F2
:1038A0002343CC6923438C6923430C68234313438C
:1038B00004686361B2F1406FC9D04B680468A361CA
:1038C00085E0D1E90B3423434C6B23434C6A2343FB
:1038D0008C8A43EA84430C6A2343CC6923438C6972
:1038E00023430C6823431343046863616FE0FFE7DD
:1038F0000B6AC3B38B680468E361CB69EBB1D1E9B0
:103900000B3423434C6B23434C6A23438C8A43EA96
:1039100084430C6923430C6A2343CC682343CC695A
:1039200023438C692343134304686361B2F1406FFE
:103930004DD04B680468A36149E0D1E90B342343BF
:103940004C6B23434C6A23438C8A43EA84430C69BF
:1039500023430C6A2343CC6923438C6923431343D9
:103960000468636133E0FFE7CB69DBB1D1E90B3475
:1039700023434C6B23434C6A23438C8A43EA84439E
:103980000C6A2343CC682343CC6923438C692343CB
:10399000134304686361B2F1406F18D04B68046848
:1039A000A36114E04B6A93B1D1E90B3423434C6B10
:1039B00023434C6A23438C8A43EA84430C6A23439F
:1039C000CC6923438C69234313430468636110BDAE
:1039D0002DE9F04104460E4617469846069D12E032
:1039E000681C80B1FDF73EFBA0EB0800A84200D8A0
:1039F0004DB9042084F84100606C40F0010060641F
:103A00000120BDE8F08120688068304008B10120C5
:103A100000E00020B842E3D10020F2E72DE9F041B8
:103A200004460E4600275548006800F003000328AE
:103A300002D10120BDE8F08150482838006820F00C
:103A400080604E4928390860FDF70CFB054606E00A
:103A5000FDF708FB401B022801D90320EAE747488D
:103A600028380068C0F3C0600028F1D100BF434887
:103A7000006820F47C30216840EA01303F4908604A
:103A8000A088401EC0F30800A168491E4FF47E4282
:103A900002EA41210843A189491ED20102EA0141FB
:103AA0000843217C491E120202EA0161084333499E
:103AB0001031086000BF3148001D006820F0C000D0
:103AC000616908432D49091D08600846006820F017
:103AD0002000A16908432949091D086008460068BB
:103AE00020F0100008602548143000684FF6F87187
:103AF0008843E16940EAC1002049143108601F4849
:103B0000001D006840F010001C49091D08602EB916
:103B10000846006840F40020086012E0012E08D139
:103B20001648001D006840F480101449091D086003
:103B300007E01248001D006840F400100F49091DFD
:103B400008600E482838006840F080600B4928392A
:103B50000860FDF787FA054606E0FDF783FA401B8B
:103B6000022801D9032065E7044828380068C0F31B
:103B7000C0600028F1D038465CE7000028440258B5
:103B80002DE9F04104460E4600275548006800F034
:103B90000300032802D10120BDE8F08150482838F5
:103BA000006820F080504E4928390860FDF75AFA25
:103BB000054606E0FDF756FA401B022801D903200E
:103BC000EAE7474828380068C0F340700028F1D180
:103BD00000BF4348006820F07C70218840EA015013
:103BE0003F490860A088401EC0F30800A168491E34
:103BF0004FF47E4202EA41210843A189491ED201C5
:103C000002EA01410843217C491E120202EA0161D5
:103C1000084333491831086000BF3148001D00686F
:103C200020F44060616908432D49091D0860084679
:103C3000006820F40070A16908432949091D086043
:103C40000846006820F48070086025481C30006831
:103C50004FF6F8718843E16940EAC10020491C3100
:103C600008601F48001D006840F480701C49091D51
:103C700008602EB90846006840F48000086012E031
:103C8000012E08D11648001D006840F400001449B8
:103C9000091D086007E01248001D006840F08070B0
:103CA0000F49091D08600E482838006840F0805010
:103CB0000B4928390860FDF7D5F9054606E0FDF700
:103CC000D1F9401B022801D9032065E704482838B0
:103CD0000068C0F340700028F1D038465CE700006F
:103CE00028440258704710B5FDF7C2F910BD000016
:103CF00010B50248FCF721FC10BD00003C02002476
:103D000000BFFEE702480068C0F3022070470000D1
:103D10000CED00E010B5002804DB0A07130E054A7D
:103D2000135406E00A07140E034A00F00F031B1F8A
:103D3000D45410BD00E400E018ED00E000BF70476F
:103D400010B504460420FFF76FFC0148046010BD65
:103D50000800002470B504461E2094FBF0F594FB87
:103D6000F0F100FB114604E047F2305000F00CF88F
:103D70006D1E002DF8D12EB14FF47A7106FB01F0C3
:103D800000F002F870BD00000146114A12684A4373
:103D90004FF0E0235A6100229A611A46126942F0FC
:103DA00001021A6100BF4FF0E022106900F0010229
:103DB0001AB100F48032002AF5D04FF0E0221269E7
:103DC00022F001024FF0E0231A6100229A6170474D
:103DD0000800002400BF054AD26902F04002002A10
:103DE000F9D0C2B2014B9A62704700000010014046
:103DF0008AB00025002700F069FDFDF745F904238E
:103E000002221146F02000F0F1FE4FF4F070FFF7AF
:103E100097FF4FF4E13000F09FFF78484168F020B1
:103E20008847FCF78FFBFCF792FBFCF795FBFCF750
:103E300098FB4FF4784072A110221346CDE900217F
:103E40000290C82232211E20FCF790FB4FF47840EC
:103E50006DA110221346CDE900210290C82246210F
:103E60001E20FCF783FB4FF478406AA11022134612
:103E7000CDE900210290C8225A211E20FCF776FBD2
:103E80004FF4784067A110221346CDE9002102903B
:103E9000C8226E211E20FCF769FB00F03FFA07469E
:103EA00027E04FF4784065A110221346CDE90021A8
:103EB0000290C82282211E20FCF758FB4FF4FA70B2
:103EC000FFF748FF4FF4784061A110221346CDE977
:103ED00000210290C82282211E20FCF747FB4FF4EC
:103EE000FA70FFF737FF00BF20215E48FDF7A4F806
:103EF00000BF002FD5D04FF6FF708742D1D01F20D2
:103F000059A110221346CDE900210290C822822136
:103F10001E20FCF72BFB4FF080766DE00020FCF7B5
:103F20002AFB0446022C2DD14FF6FF7040F23F13BE
:103F3000EF22962100900020FCF722FB1F204FA1CA
:103F400010221346CDE900210290C82296211E209E
:103F5000FCF70CFB2B464F4A4FA103A8FCF715FBBF
:103F6000A6F164011A2203A800F0E6F91F204CA173
:103F700010221346CDE900210290C82296211E206E
:103F8000FCF7F4FA012C29D11F204BA11022134673
:103F9000CDE900210290C82296211E20FCF7E6FA06
:103FA000A6F164011A2203A800F0A2F91F2048A17B
:103FB00010221346CDE900210290C82296211E202E
:103FC000FCF7D4FA1F2003A910221346CDE90021E3
:103FD0000290C822AA211E20FCF7C8FA681C85B2EC
:103FE000142D06D100BF20211E48FDF725F800BF83
:103FF00000250A20FFF7AEFE90E7000080000024B5
:1040000053544D333200000051535049205445530E
:104010005400000041544F4D40414C49454E5445D9
:104020004B000000574B5F55503A5772697465203A
:10403000204B4559303A526561640000464C41536B
:104040004820436865636B204661696C65642100A4
:10405000506C6561736520436865636B2120202087
:1040600020202000001002585153504920464C4156
:1040700053482052656164792100000053746172D5
:104080007420577269746520464C4153482E2E2E79
:104090002E0000009A4D00082573256400000000E2
:1040A000464C4153482057726974652046696E69D1
:1040B0007368656421000000537461727420526556
:1040C000616420464C4153482E2E2E202E200000A5
:1040D00054686520446174612052656164656420A0
:1040E00049733A202020000010B500F0F9F900F0E3
:1040F00091F9002301221946C72000F039FB00F096
:1041000089F910BD10B50446240300F0E9F900F068
:1041100081F907480078002141EA0010401DC2B231
:104120000B462146202000F023FB00F073F910BD60
:104130002A00002410B5002400BF1A48806800F04F
:1041400020000028F9D14FF483701649486100BF60
:104150001448806800F002000028F9D01148C068B7
:1041600040F002000F49C8604FF6FF720021202086
:1041700000F092FB98B9EB2444F4807444F440645A
:104180000948007844EA003444F4404400BF44F451
:10419000801444F0407444F040640248446100F0EC
:1041A00037FC10BD005000522A00002410B5002436
:1041B00000F014F804460CB9FFF796FFFFF7BAFFBA
:1041C00010BD70B50446002500F008F8054615B985
:1041D0002046FFF797FFFFF7ADFF70BD70B50024D5
:1041E00000F014FC00BF00BF00BF00BF00BFBFF362
:1041F0004F8F00BF00BF00BF00BF00BF00BFBFF3B5
:104200006F8F00BF00BF00BF00203649086000BFAD
:1042100000BF00BFBFF34F8F00BF00BF00BF00BF94
:1042200000BF00BFBFF36F8F00BF00BF00BF00BF64
:1042300000BF00232C4D2B6000BF00BF00BF00BF9C
:10424000BFF34F8F00BF00BF00BF2B1F1868C0F324
:104250004E3100BFC0F3C90200BF43F6E07303EA6A
:1042600041134FF0404505EA82752B431D4D103533
:104270002B6000BF00BF131EA2F10102EDD10B1E87
:10428000A1F10101E6D100BF00BF00BFBFF34F8F16
:1042900000BF00BF00BF00BF00BF00BFBFF36F8FF4
:1042A00000BF00BF00BF00BF1048006820F0010041
:1042B0000E4908600846006840F0020008604FF6AA
:1042C000FF720021202000F0E7FA04463CB90020EC
:1042D000064948610846006840F001000860204631
:1042E00070BD000050EF00E084ED00E0005000528F
:1042F0002DE9F04106460D4617460024A5F1E0459C
:1043000000F084FB00BF03E0285D3055601C84B2E0
:10431000BC42F9DB00F07CFBBDE8F08170B5002405
:104320000025FFF75BFF044614B900F033F805469B
:10433000FFF700FF284670BD2DE9F04105460E4607
:1043400017460024FFF74AFF044624B93A4631468F
:10435000284600F069F8FFF7EDFE2046BDE8F08141
:1043600070B505460E46144609480078C02141EA5A
:10437000001040F00C00401CC2B206233146EB2076
:1043800000F0F6F92146284600F0DEF970BD000085
:104390002A00002438B500F0EBF800236522194606
:1043A000902000F0E5F90221684600F0CDF99DF873
:1043B00001009DF8001040EA01244EF61870844276
:1043C00002D1032001490870204638BD2A0000248C
:1043D00038B50446002000900025012C04D0022CA2
:1043E00004D0032C06D103E0052505E0352503E0C4
:1043F000152501E0052500BF00BF00234122194615
:10440000284600F0B5F90121684600F09DF99DF8B5
:10441000000038BD10B500BF0120FFF7D9FF00F044
:1044200001000028F8D110BD2DE9F05F81460F464C
:104430001646DFF8A8B04FEA1738C7F30B0ACAF5DB
:104440008054A64200DC344644E04FEA08314FF481
:1044500080525846FFF784FF002508E00AEB05006C
:104460001BF80000FF2800D003E0681C85B2A542BD
:10447000F4DB00BFA54216DA4046FFF743FE0025F5
:1044800007E019F8050005EB0A010BF80100681CAC
:1044900085B2A542F5DB4FEA08314FF48052584609
:1044A00000F026F804E022463946484600F020F89D
:1044B000A64200D10FE008F101084FF0000AA14424
:1044C0002744301B86B2B6F5805F02DD4FF480547E
:1044D00000E03446B9E700BFBDE8F09F7803002450
:1044E00010B5002301221946062000F041F910BD45
:1044F0002DE9F04107460E461446F0B2C0F580752E
:10450000AC4200DC254612E02A463146384600F02F
:1045100013F8AC4200D10BE02F442E44601B84B250
:10452000B4F5807F02DD4FF4807500E02546EBE7AF
:1045300000BFBDE8F081000070B505460E46144688
:10454000FFF7CEFF09480078C02141EA0010401D66
:10455000C2B200233146322000F00AF92146284633
:1045600000F086F9FFF756FF70BD00002A00002416
:1045700000B587B000BF6E48006840F480406C49C9
:1045800008600846006800F48040019000BF00BF4A
:1045900000BF00BF66480C30006840F0020064496C
:1045A0000C3108600846006800F00200019000BF6E
:1045B00000BF00BF00BF00BF0846006840F0020017
:1045C00008600846006800F00200019000BF00BFCC
:1045D00000BF00BF00BF0846006840F00800086048
:1045E0000846006800F00800019000BF00BF00BF4F
:1045F00000BF00BF0846006840F008000860084699
:10460000006800F00800019000BF00BF00BF00BFBD
:1046100000BF0846006840F01000086008460068C7
:1046200000F01000019000BF00BF00BF00BF00BF3E
:104630000846006840F0080008600846006800F07E
:104640000800019000BF00BF00BF042002900220BC
:10465000039001200490032005900920069002A9F0
:104660003448FCF7E3FB4020029002200390012035
:104670000490032005900A20069002A92D48FCF71B
:10468000D5FB4FF4006002900220039001200490BB
:10469000032005900920069002A92748FCF7C6FBD5
:1046A0004FF48050029002200390012004900320D8
:1046B00005900920069002A91F48FCF7B7FB0420CB
:1046C000029002200390012004900320059009200D
:1046D000069002A91948FCF7A9FB4FF4005002907C
:1046E00002200390012004900320059009200690E9
:1046F00002A91148FCF79AFB1148124908600120F1
:10470000486004210F4881601021C16018210161B7
:104710004FF400714161012181610021C161016299
:10472000FCF734FE10B9002007B000BD0120FBE704
:10473000D444025800040258000C025800100258D9
:10474000005000522C03002470B504460D46681E2C
:1047500006490968086141F2883221460348FCF79E
:104760006EFE08B9002070BD0120FCE72C03002478
:10477000F0B58FB007460D4614461E4601970295C8
:10478000069604F0030010B90020079013E004F02F
:104790000300012802D1000207900CE004F003009E
:1047A000022802D10002079005E004F0030003286C
:1047B00001D100020790C4F3810010B900200890D5
:1047C00013E0C4F38100012802D1800208900CE0BC
:1047D000C4F38100022802D18002089005E0C4F3EE
:1047E0008100032801D180020890C4F3011010B9A0
:1047F0000020049013E0C4F30110012802D100034B
:1048000004900CE0C4F30110022802D100030490CC
:1048100005E0C4F30110032801D100030490A009AE
:1048200010B900200A9013E00120B0EB941F02D1D0
:1048300000060A900CE00220B0EB941F02D10006A3
:104840000A9005E00320B0EB941F01D100060A9006
:1048500000200E9009900C900D9041F2883201A931
:104860000248FCF741FD0FB0F0BD00002C0300240E
:1048700070B504460D46681E06490968086141F294
:10488000883221460348FCF74EFE08B9002070BD6F
:104890000120FCE72C03002410B5034600240BE0A4
:1048A00009488068184008B1012000E00020044653
:1048B0008C4200D102E0521E002AF1D100BF0AB1A1
:1048C000002010BD0120FCE70050005210B500BFD1
:1048D0004C48006800F4003000B139E000BF00BF70
:1048E00000BFBFF34F8F00BF00BF00BF00BF00BFBE
:1048F00000BFBFF36F8F00BF00BF00BF0020424961
:10490000086000BF00BF00BFBFF34F8F00BF00BFF4
:1049100000BF00BF00BF00BFBFF36F8F00BF00BF6D
:1049200000BF3848006840F400303649086000BFD6
:1049300000BF00BFBFF34F8F00BF00BF00BF00BF6D
:1049400000BF00BFBFF36F8F00BF00BF00BF00BF3D
:1049500000BF2C4B1B6803F4803303B148E00023F5
:10496000284C7034236000BF00BF00BFBFF34F8FDF
:1049700000BF00BF00BF231F1868C0F34E3100BF47
:10498000C0F3C90200BF43F6E07303EA41134FF0DE
:10499000404404EA827423431B4C1034236000BF5C
:1049A00000BF131EA2F10102EDD10B1EA1F1010106
:1049B000E6D100BF00BF00BFBFF34F8F00BF00BFF5
:1049C00000BF104B1B6843F480330E4C236000BFC4
:1049D00000BF00BFBFF34F8F00BF00BF00BF00BFCD
:1049E00000BF00BFBFF36F8F00BF00BF00BF00BF9D
:1049F00005484C30006840F0040003494C31086021
:104A000010BD000014ED00E050EF00E072B67047FA
:104A100062B6704730B587B00546002400BF6A48CB
:104A2000006840F00200684908600846006800F02D
:104A30000200019000BF00BF00BF0846006840F0C0
:104A4000080008600846006800F00800019000BFF8
:104A500000BF00BF0846006840F01000086008462C
:104A6000006800F01000019000BF00BF00BF564872
:104A70000C38006840F4804053490C3908600846FF
:104A8000006800F48040019000BF00BF4020029009
:104A90000220039003200590012004900A20069034
:104AA00002A94A48FCF7C2F90420029009200690A6
:104AB00002A94648FCF7BAF94FF460500290092069
:104AC000069002A94248FCF7B1F90420029009209F
:104AD000069002A93F48FCF7A9F93B4864380068F2
:104AE00040F480403849643908600846006820F482
:104AF0008040086000BF3848806800F0200000282F
:104B0000F9D136483449086035484860084600689D
:104B100040F00100086000BF2F48806800F02000CE
:104B20000028F9D14FF483702B49486100BF2A480F
:104B3000806800F002000028F9D02748C06840F0E3
:104B400002002549C86000BF2348806800F02000AB
:104B50000028F9D12049C861EB2444F4807444F45E
:104B60004064A81C44EA003444F4404400BF44F4C8
:104B7000801444F0407444F040640846446119488D
:104B8000006820F4803017490860164870300068CB
:104B900020F001001349703108600020091D0860F1
:104BA0004FF01040091D08600F48091D08600520DE
:104BB0000C49703108600B48006840F480300949A6
:104BC000086007B030BD0000E044025800040258FD
:104BD000000C02580010025800500052100300014F
:104BE0000102180024ED00E02D0003032DE9F0413F
:104BF000CEB080460D4616461F4600245248006837
:104C000020F004005049086000BF002001904F4888
:104C1000006820F001004D4908600846006800F077
:104C20000100019048480C30006840F4404046497B
:104C30000C3108600846006800F44040019000BF55
:104C400000BF00BF40480C30006800F40050B0F5D1
:104C5000005FF7D121203A904FF480303B90002044
:104C60003D904190012040900220439002213AA8BB
:104C70008162CDF81881C562466387630021416473
:104C80000821016400218164FEF79EF804461CB1EE
:104C900001204EB0BDE8F0813F20329003203390D8
:104CA0000020349008203590402037900001389043
:104CB000402036903990042132A8FDF795FD044636
:104CC0000CB10120E5E722490020CDE902100820BF
:104CD00004904FF4DC71059102210691079108912F
:104CE000002109910A910B91022014902020159027
:104CF0000020209021904FF44010249002A8FCF74F
:104D0000BFFE04460CB10120C3E70020FFF782FE7E
:104D1000FCF7E0FA0F48006840F080000D49086099
:104D200000BF0C48F430006840F002000949F4313B
:104D300008600846006800F00200019000BF00BF54
:104D4000FCF76AF80020A4E70C4802582C0400582D
:104D5000030004030044025810B5044609480A49F8
:104D600008600846446000218160C1600161816182
:104D70000C214161FBF70EFC012204490248FBF7BC
:104D8000D7FB10BD001001403C020024120000249B
:104D90004FF04070E1EE100A70474D3130305A4DFF
:104DA000372053544D333248372051535049205403
:104DB00045535400000000000102030401020304F3
:104DC00006070809E44D00080000002474010000F3
:104DD000D4020008584E000874010024B41A0000E0
:104DE00030030008113C90D00304F132103301016C
:104DF00022F823FFFF1417EF0213A8B11B90BC0485
:104E00001AC4041AB0041ACC041AAC041AB4041359
:104E10004558149044B21490116A1B901808135509
:104E20003D1B0898081A89081AB408131D431B086B
:104E3000D02813AD411B08F4081AC3081A681822B9
:104E4000481424F15F1B904D401AFD041331601B80
:084E500090077B01DC0000006B
:0200000490006A
:10000000642900F07F80752900F07C80782900F059
:10001000B580632900F02382732900F02882002034
:10002000704700000FB4044910B503AA029800F00D
:1000300023FA10BC5DF814FB0C0000240FB41CB5AF
:10004000074B06AA7B4469460090059800F0E5F945
:100050000020694600F0F4F91CBC5DF814FB0000B8
:10006000F903000070B5044685690068C10601D532
:10007000302600E02026C00707D070BDD4E901215A
:1000800030469047206A401C20626D1EF6D570BD38
:1000900070B5044685690078C00707D170BDD4E902
:1000A000012120209047206A401C20626D1EF6D559
:1000B00070BD70B50C460546012A05D0287880062B
:1000C00000D5EA69002302E0012305E05B1C9342AE
:1000D00002D2E05C0028F9D1A869E618C01AA8612C
:1000E000286A184428622846FFF7BCFF04E0D5E9D7
:1000F000012114F8010B9047B442F8D32846FFF7CA
:10010000C7FF70BD2DE9F04106460024106875292F
:10011000314616A510D0AFF30080002802DA404225
:1001200013A507E031688A0701D512A502E0490747
:1001300004D511A5012401E0AFF3008000210A22BB
:1001400006F1240709E0B0FBF2FCB0FBF2F302FB7E
:100150001C00303078541846491C0028F3D123463F
:100160002A463046BDE8F04100F0F8B80000000033
:100170002D0000002B0000002000000070B5044698
:100180000D4621461068AFF300802188090502D58D
:100190000F4A7A4402E00E4A7A440E32002104F1FA
:1001A000240305E000F00F060009965D5E54491C2B
:1001B0000028F7D120780023000704D5702D02D045
:1001C00009B1022311322046BDE8704000F0C6B8E4
:1001D000D6AF00002DE9F05F894604464FF0000AD3
:1001E000DFF874B1FB44C0F820A02046E1688847DE
:1001F000002874D0252806D0D4E901219047206A30
:10020000401C2062F1E700265F462046E1688847EF
:100210002028054607DB312D05D2781910F8200C6F
:1002200008B10643F1E7B00701D526F00406C4F88B
:100230001CA00027C4F818A02A2D09D0284601F0D8
:10024000FCFE38B304EB8708303DC8F8185019E0BD
:1002500059F8041B204604EB87029161E168884746
:10026000012F054618D1E069002820DA26F0200683
:100270001DE0D8F8180000EB800005EB4000303896
:10028000C8F818002046E1688847054601F0D5FE09
:100290000028EED1012F0AD02E2D08D12046E1688A
:1002A00088477F1C0546022F46F02006C4DBA06964
:1002B000002803DA404246F00106A061F00701D0B1
:1002C00026F010066C2D0BD0682D09D04C2D39D09E
:1002D0006A2D35D0742D35D07A2D33D016E038E024
:1002E000E1682F4620468847B842054609D16C2F61
:1002F00026D04FF48060E1680643204688470546D3
:1003000004E06C2F1AD04FF4807006430DB3A5F1B2
:100310004100192802D8203546F400664A4629468D
:10032000204626604E46FFF76BFE80B101280BD0B9
:10033000F61D26F0070000F1080956E74020E4E723
:100340008020D8E70020D6E706F104094DE72846CB
:1003500052E7206ABDE8F09FACAF00002DE9F047FE
:100360000D4699469246044600F124080168880625
:1003700004D5E06921F01001216000E00120A842CD
:1003800001DD471B00E00027A1697A1902EB090093
:10039000081AA0612078C00602D42046FFF762FE4A
:1003A000002608E0D4E901211AF806009047206AE7
:1003B000401C761C20624E45F4DB2078C0060AD52E
:1003C0002046FFF74FFE06E0D4E901213020904798
:1003D000206A401C2062381EA7F10107F4DC07E008
:1003E000D4E9012118F805009047206A401C2062DA
:1003F000281EA5F10105F3DC2046FFF749FE207811
:10040000000602D50220BDE8F0870120FBE70000CE
:1004100001694A1C02610878704700B58FB0CDE9C8
:1004200001310021059105497944CDE903101146B8
:100430006846FFF7CFFE0FB000BD0000E5FFFFFFED
:100440000A6802F8010B0A60704710B5436913B1DE
:10045000AFF3008001E0FFF72CFE012010BD127801
:1004600000F124010A7000224A700122EDE71168B0
:100470004FF0FF32E9E70000074B70B50D467B44B3
:10048000FFF7CBFF0446284600F008F810B14FF004
:10049000FF3070BD204670BD53390078007B00F0FE
:1004A0008000704740F62D6CC0F6000C604740F6A7
:1004B000812CC0F6000C604740F2A55CC0F6000C31
:1004C000604743F2856CC0F6000C604741F24D0C6A
:1004D000C0F6000C604743F6555CC0F6000C604760
:1004E00041F2650CC0F6000C604743F2457CC0F653
:1004F000000C604741F2FD5CC0F6000C604741F221
:10050000216CC0F6000C604741F6510CC0F6000C9F
:10051000604740F2D73CC0F6000C604742F6553CBD
:10052000C0F6000C604742F6793CC0F6000C60470C
:1005300041F2290CC0F6000C604743F6895CC0F616
:10054000000C604741F29D1CC0F6000C604741F270
:10055000411CC0F6000C604741F2C91CC0F6000CFB
:10056000604741F2332CC0F6000C604741F20B2C7F
:10057000C0F6000C6047000070B50446B3F5804F2C
:1005800013D1D1E9000540EA05108D6840EA052045
:100590008D6928438D8940EA054054F82250064E63
:1005A0003540284344F8220003E06FF0704044F8DF
:1005B0002200002070BD00000000F0CF70B50246A0
:1005C000086852F8200020F001000E6842F826006A
:1005D0008868082801D1402500E0002548682843A4
:1005E0008E683043CE6830430E6930434E693043E5
:1005F0008E693043CE6930430E6A30434E6A3043D1
:100600008E6A3043CE6A40EA0603086B0343486BA8
:100610000343886B0343114C44F4801444F40014E6
:1006200044F4E024086852F82000A04318430E6800
:1006300042F82600086BB0F5801F07D1086828B182
:10064000106820F480100E6B30431060086818B1F9
:1006500010684E6B30431060002070BD7FFB0800B7
:1006600030B50346D1E9000540EA05108D6840EA3F
:1006700005208D8940EA0545088A401E45EA005557
:10068000087D801E45EA00608D692843551C53F89B
:10069000255005F040452843551C43F825001868AF
:1006A00000F48010B0F5801F0BD1586820F470045E
:1006B000088A401E44EA0054586820F47000204321
:1006C0005860002030BD000070B504460E46154647
:1006D0000CB9012070BD94F8450028B9002084F8B9
:1006E0004400204600F028F804F108012068FFF7D4
:1006F00065FF3146A2682068FFF7B2FF2946E36A2A
:10070000D4E90102FFF738FFA168206850F8210002
:1007100040F00100A268216841F822000548006805
:1007200040F0004003490860012084F845000020A3
:10073000D0E700000040005210B586B0044600BF6C
:100740002048006840F480501E4908600846006850
:1007500000F48050009000BF00BF00BF19480C306B
:10076000006840F0080017490C310860084600682E
:1007700000F00800009000BF00BF00BF08460068FE
:1007800040F0100008600846006800F0100000907B
:1007900000BF00BF4CF203700190022002900120C4
:1007A0000390032004900C20059001A90648FFF750
:1007B00079FE4FF68070019001A90448FFF772FEA0
:1007C00006B010BDD4440258000C02580010025864
:1007D00010B504460CB9012010BD94F83D0028B9AD
:1007E000002084F83C00204600F029F8022084F81C
:1007F0003D00211D206800F0ABFB012084F848007B
:1008000000BF84F83E0001213F20015540200155E2
:1008100041200155422001554320015500BF00BF32
:10082000012084F844004520015546200155472009
:10083000015500BF012084F83D000020CCE770473F
:10084000014691F83D00012801D0012070470220A7
:1008500081F83D000868C06840F001000B68D8606E
:100860001C4B086898421BD00868B0F1804F17D025
:10087000194B0868984213D0184B086898420FD05B
:10088000174B086898420BD0164B0868984207D05F
:10089000154B0868984203D0144B0868984210D151
:1008A00008688068124B00EA0302062A0FD0B2F5EE
:1008B000803F0CD00868006840F001000B681860A9
:1008C00005E00868006840F001000B68186000202F
:1008D000BCE70000000001400004004000080040A8
:1008E000000C00400004014000180040004001409E
:1008F000070001007047704770477047704700005D
:100900002DE9F04704462068C5692068066820681C
:10091000876840F60F0005EA0009B9F1000F0FD112
:1009200005F0200060B106F0200010B907F08050FB
:1009300030B1606F10B12046616F8847BDE8F08725
:10094000B9F1000F7ED0FE48384018B9FD4830405C
:100950000028F7D005F0010058B106F4807040B1CE
:10096000012021680862D4F8900040F00100C4F82A
:10097000900005F0020058B107F0010040B10220DC
:1009800021680862D4F8900040F00400C4F8900098
:1009900005F0040058B107F0010040B104202168BF
:1009A0000862D4F8900040F00200C4F8900005F00E
:1009B000080070B106F0200010B9E148384040B19D
:1009C000082021680862D4F8900040F00800C4F8BC
:1009D000900005F4006060B106F0806048B14FF40B
:1009E000006021680862D4F8900040F02000C4F84C
:1009F0009000D4F89000002852D005F0200050B1AB
:100A000006F0200010B907F0805020B1606F10B1DF
:100A10002046616F8847D4F890A02068806800F075
:100A20004000402802D00AF0280070B3204600F0B1
:100A3000F3FB2068806800F04000402826D100BF0A
:100A400000BF00E02DE02168083151E8001F21F0CF
:100A500040002168083141E80002002AF1D100BFBE
:100A6000D4F8800068B1B848D4F880100865D4F88C
:100A70008000FFF71CFD98B1D4F88000016D884715
:100A80000EE02046FFF73AFF0AE003E02046FFF7BA
:100A900035FF05E02046FFF731FF0020C4F8900045
:100AA0004CE7E06E01287DD105F01000002879D0D8
:100AB00006F010000028FAD0102021680862206893
:100AC000806800F0400040286DD1D4F880000068B4
:100AD0009E4988426BD0D4F8800000689B49183149
:100AE000884264D0D4F88000006898493031884248
:100AF0005DD0D4F88000006894494831884256D0CF
:100B0000D4F8800000689149603188424FD0D4F811
:100B1000800000688D497831884248D0D4F8800040
:100B200000688A499031884241D0D4F8800000683A
:100B30008649A83188423AD0D4F8800000688449B8
:100B4000884234D0D4F88000006881491831884246
:100B50002DD0D4F8800000687D493031884226D0FD
:100B6000D4F8800000687A49483188421FD0D4F810
:100B70008000006876496031884218D0D4F880003F
:100B8000006873497831884211D0D4F88000006839
:100B90006F49903188420AD0D4F8800000686C49CF
:100BA000A83102E0AEE069E001E0884204D1D4F867
:100BB00080000068406803E0D4F880000068406866
:100BC0001FFA80F8B8F1000F57D0B4F85C00404528
:100BD00053DDA4F85E80D4F88000C069B0F5807F52
:100BE00040D000BF00BF216851E8001F21F4807091
:100BF000226842E800010029F5D100BF00BF00BF14
:100C00002168083151E8001F21F0010021680831F6
:100C100041E80002002AF3D100BF00BF00BF2168F5
:100C2000083151E8001F21F040002168083141E8F7
:100C30000002002AF3D100BF2020C4F88C0000205D
:100C4000E06600BF00BF216851E8001F21F01000DE
:100C5000226842E800010029F5D100BFD4F88000E5
:100C6000FFF72AFC02202067B4F85C00B4F85E208D
:100C7000801A81B22046FFF73DFE5FE634F85C0F34
